:020000040800F2
:100000007005002001010008FF1900089D17000875
:10001000FD19000825060008611F00080000000007
:10002000000000000000000000000000231A00088B
:100030002706000800000000211A0008251A000801
:100040001B0100081B0100081B0100081B01000820
:100050001B0100081B0100081B0100081B01000810
:100060001B0100081B0100081B0100081B01000800
:100070001B0100081B0100081B0100081B010008F0
:100080001B0100081B0100081B0100081B010008E0
:100090001B0100081B0100081B0100081B010008D0
:1000A0001B0100081B0100081B0100081B010008C0
:1000B000E51A00080D1B00081B0100081B010008C1
:1000C0001B0100081B0100081B0100081B010008A0
:1000D0001B010008491F0008551F00081B010008EC
:1000E0001B0100081B0100081B010008DFF80CD0F1
:1000F00000F008FA00480047E51F000870050020DE
:100100000648804706480047FEE7FEE7FEE7FEE7B1
:10011000FEE7FEE7FEE7FEE7FEE7FEE79D1A0008C2
:10012000ED000008202A04DB203A21FA02F0002129
:10013000704721FA02F3D040C2F1200291400843F7
:100140001946704780EA010210B502F000434000F2
:1001500022D04A001FD0010E01EB1261C0F35600FD
:10016000C2F3560240F4000042F40002A0FB022059
:1001700000047F39140400D0401C50EA124001D41E
:100180004000491EC2B20C0604EBD010401C4008CF
:10019000802A02D003E0002010BD20F001000029D9
:1001A00000DA0020184310BD420005D0C0F3C7524A
:1001B0005242914201DC0020704700EBC150704771
:1001C00096230022114600F054B820F00040C10DE3
:1001D000C0F3160040F400007F2901DA00207047C8
:1001E000962903DCC1F19601C840704796398840D2
:1001F0007047C1F30A5210B5C1F3130140F2FF3347
:1002000041F480119A4201DA002010BD40F23343DC
:100210009A42A2F2334203DC5242FFF783FF10BD41
:10022000904010BD00F0004230F000400AD0C10DF7
:1002300001F56071C0F3160042EA0151C20840079F
:10024000114370470020014670470000002801DB81
:10025000C0F10040002901DBC1F100418842704734
:100260000029A8BF7047401C490008BF20F00100CA
:10027000704710B4B0FA80FC00FA0CF050EA0104A8
:1002800004BF10BC704749B1CCF1200421FA04F43A
:1002900011FA0CF118BF012121430843A3EB0C0113
:1002A000CB1D4FEA00614FEA102042BF002010BC76
:1002B000704700EBC35010440029A4BF10BC704726
:1002C000401C490008BF20F0010010BC70472DE918
:1002D000FE4F804681EA0300C00F0C46009021F0DB
:1002E000004123F00045B8EB0200A94105D2404689
:1002F000214690461C460B46024623F00040104320
:1003000047D0270DC7F30A00C3F30A510290401AE1
:10031000019040286BDAC3F3130040F4801B00986F
:10032000924620B10023D2EB030A63EB0B0B01983A
:100330005946C0F14002504600F0F6F806460D4618
:1003400050465946019A00F0FEF810EB0800614152
:10035000002487EA115284EAE7731A4340D0009AD6
:1003600062B3019A012A4FEA075215DC001B61EBC8
:1003700002014FF0004202EA0752CDE90042001CA0
:1003800041F5801132462B4600F0FEF803B0BDE87F
:10039000F08F40462146F9E7001B61EB0201001C8B
:1003A00041F5801300185B412018A2F5001747EBB8
:1003B000030140EAD570B6196D4111E06D084FEAAE
:1003C000360645EAC0754FEA0752001B61EB020191
:1003D000001C41F5801149084FEA300000195141D5
:1003E00032462B4603B0BDE8F04F00F0BEB800988F
:1003F000012240000023D0EB020263EBE07300987F
:1004000021464FEAE074B8EB000061EB0401E9E734
:1004100083F000435BE781F0004158E72DE9F041AC
:10042000054621F000400C46284309D0C4F30A5089
:1004300040F23341884205DD28462146BDE8F0817F
:100440002846FBE740F2FE31884210DC0CDB4FEA25
:10045000043040EA155050EA053105D0104804F048
:10046000004101430020E9E700200146E6E7A0F251
:1004700033404642C6F140022846214600F054F877
:1004800007468846284621463246FFF74BFE43463C
:100490003A4600F06AF83246BDE8F04100F044B850
:1004A0000000F03F30B5041E71F1000404DB4FF092
:1004B0000044404264EB0101141E73F1000405DBAB
:1004C0001C464FF00043524263EB04038B4208BFCB
:1004D000824230BD30B5041E71F1000404DB4FF0E0
:1004E0000044404264EB0101141E73F1000405DB7B
:1004F0001C464FF00043524263EB0403994208BF8D
:10050000904230BD064C074D06E0E06840F0010324
:1005100094E8070098471034AC42F6D3FFF7EAFDA1
:100520006C2200088C220008202A04DB203A00FA02
:1005300002F1002070479140C2F1200320FA03F33A
:10054000194390407047202A06DBCB17203A41FA26
:1005500002F043EAE07306E041FA02F3D040C2F150
:100560002002914008431946704710B5141E73F1DC
:10057000000408DA401C41F1000192185B411A4363
:1005800001D120F0010010BD2DE9F04D92469B46AF
:1005900011B1B1FA81F202E0B0FA80F22032904655
:1005A000FFF7C2FF04460F4640EA0A0041EA0B018A
:1005B00053465A46084313D0114653EA010019D056
:1005C000C8F140025046FFF7ADFD05460E465046C5
:1005D00059464246FFF7A8FF084305D0012004E032
:1005E00020463946BDE8F08D0020054346EAE07616
:1005F0002C4337430A986305E40AA0EB0800002265
:10060000FD0A44EA47540A3002D500200146E9E7D2
:10061000010510196941DDE9084500196941BDE886
:10062000F04DA2E7FEE7704710B590F821100024C6
:10063000022903D00421816301243DE001680A6896
:1006400022F00E020A6001680A6822F001020A60C4
:100650001A4A0168914201D1012121E0174A14325E
:10066000914201D110211BE0144A2832914201D15C
:10067000891515E0114A3C32914201D189140FE0ED
:100680000E4A5032914202D14FF4803108E00B4AB9
:100690006432914202D14FF4801101E04FF0807139
:1006A000064A083A5160012180F82110002180F8A3
:1006B0002010416B01B18847204610BD0800024060
:1006C00070B5044600F0F6F80546601C02D00448F8
:1006D0000078044400F0EEF8401BA042FAD370BD4D
:1006E000200000202DE9F84FDFF890A100220AF148
:1006F000040B144601274FF00F090BF1040E00BF45
:100700000B6807FA04F52B40AB4274D1DFF870C1D7
:100710004E68A6EB0C0866452BD00DDC032E34D0BA
:1007200005DC36B3012E19D0022E2FD11BE0112E7D
:1007300016D0122E2AD119E0B8F5881F19D006DC80
:10074000B8F5803F15D0B8F5801F1FD111E0B8F57E
:10075000001F0ED0B8F5041F18D10AE0CA6815E0D2
:10076000CA68121D12E0CA6808320FE0CA680C326B
:100770000CE08A682AB1012A4FF0080203D04561D3
:1007800004E0042202E0056100E00022FF2B01D812
:10079000064601E000F104064FEA840501D9A5F1FF
:1007A0002005D6F800C009FA05F82CEA080C02FA70
:1007B00005F54CEA050CC6F800C04D68ED0057D5AC
:1007C000304DAE6946F00106AE61AD6924F0030616
:1007D00005F0010500952C4D06EB050CDCF80850E2
:1007E000A6074FEA167809FA08F6B543274EB04235
:1007F00002D1002610E03BE0254EB04201D1012697
:100800000AE0244EB04201D1022605E0224EB04259
:1008100001D1032600E0042606FA08F62E43CCF8A0
:1008200008604D68DAF80060ED03554601D51E43B7
:1008300000E09E432E604D68DBF80060AD035D462E
:1008400001D51E4300E09E432E604D68DEF8006037
:10085000ED02754601D51E4300E09E432E604D68B3
:10086000AD020E4D2E6801D51E4300E09E432E6062
:10087000641C102CFFF444AFBDE8F88F0004014065
:10088000000011100010024000000140000801406B
:10089000000C014000100140001401400C04014014
:1008A000C2684A40C26070470AB1016170470904DA
:1008B000FBE700000148806870470000200000202E
:1008C000024881680278114481607047200000204E
:1008D000074810B5016841F010010160032000F0E5
:1008E0009DF8002000F006F800F024F8002010BD6C
:1008F0000020024070B50D4D04464FF47A712878FF
:10090000B1FBF0F00A490968B1FBF0F000F02DFBF3
:1009100048B9102C07D200222146501E00F05EF884
:1009200000206C6070BD012070BD00002000002020
:100930002C000020214808B5816941F00101816146
:10094000816901F001010091C16941F08051C161EB
:10095000C06900F080500090032000F05FF8002292
:1009600011466FF00B0000F039F8002211466FF0CD
:100970000A0000F033F8002211466FF0090000F081
:100980002DF800221146501F00F028F800221146D1
:10099000101F00F023F800221146901E00F01EF8F0
:1009A00000221146501E00F019F80548416821F058
:1009B000E06141F00071416008BD0000001002409C
:1009C0000000014000F01F02012191404009800019
:1009D00000F1E020C0F8001170470000F0B40E4BA9
:1009E0001B680C46C3F30223C3F10705042D00D98D
:1009F0000425191D072901D2002300E0DB1E012672
:100A000006FA05F1491E214099409E40761E164087
:100A10003143F0BC00F0F4BF0CED00E0064900F0FB
:100A2000070208684FF6FF03184040EA0220034A15
:100A300010430860704700000CED00E00000FA056C
:100A40002DE9F047DFF83C8105460E46D8F8000056
:100A500000F00700B0420CD2D8F8001021F00701D6
:100A60003143C8F80010D8F8000000F00700B04289
:100A700063D12878444C800705D56068A96820F0C8
:100A8000F000084360602878C00745D068680128F6
:100A900016D02168022816D0890700294DDA61682E
:100AA00021F0030101436160FFF704FF6968074615
:100AB00041F2883001290FD00229814619D027E060
:100AC00021688903E9E78901E7E700BFFFF7F2FE44
:100AD000C11B494501D918E081466068C0F3810017
:100AE0000128F3D118E000BFFFF7E4FEC11B494520
:100AF0000BD86068C0F381000228F5D10CE000BF7C
:100B0000FFF7D8FEC11B494502D90320BDE8F08795
:100B1000606810F00C0FF3D1D8F80010404601F0D7
:100B20000701B1420BD9016821F00701314301608F
:100B3000006800F00700B04201D00120E6E7287805
:100B4000400705D56068E96820F4E060084360600C
:100B50002878000706D56068296920F4605040EACB
:100B6000C100606000F03CF86168084AC1F30311FD
:100B7000515CC840064908600020FFF7BBFE00201A
:100B8000C4E7000000200240001002405422000888
:100B90002C00002001480068704700002C00002055
:100BA0000448054900684968044AC1F30221515CC0
:100BB000C84070472C00002000100240642200084A
:100BC0000448054900684968044AC1F3C221515CE0
:100BD000C84070472C00002000100240642200082A
:100BE00012A185B00FC98DE80F0014A0144A006847
:100BF00004905168134801F00C03042B10D0082B0B
:100C00000ED1C1F38343C9031DF803000AD551680F
:100C100004AAC1F34041515C0A4A5043B0FBF1F0D1
:100C200005B0704708494843FAE70000020304058D
:100C3000060708090A0B0C0D0E0F10100102000028
:100C40000010024000127A0000093D002DE9F84F23
:100C500004460078B94DC00748D06868C0F38100E9
:100C6000012807D06868C0F38100022809D16868AC
:100C7000C00306D52868800338D5606800286FD087
:100C800034E06068B0F5803F0BD010B1B0F5A02F14
:100C900011D0286820F480302860286820F4802053
:100CA00002E0286840F480302860606888B1FFF76F
:100CB00001FE064609E0286840F480202860F0E73D
:100CC000FFF7F8FD801B642875D828688003F7D5E6
:100CD0000CE0FFF7EFFD064605E000BFFFF7EAFD79
:100CE000801B6428F0D828688003F7D42078944EBD
:100CF00080074FF001094FF000083BD5686810F0FD
:100D00000C0F07D06868C0F38100022809D1686819
:100D1000C00306D42868800714D5206901281FD194
:100D200010E02069B0B1C6F80090FFF7C3FD074698
:100D300005E000BFFFF7BEFDC01B0228C4D828682D
:100D40008007F7D52868616920F0F80040EAC10003
:100D500028600FE0C6F80080FFF7ACFD074606E00C
:100D6000E9E000BFFFF7A6FDC01B022823D82868D2
:100D70008007F7D4207800072CD57248A169D9B133
:100D8000C0F80090FFF796FD074604E0FFF792FDDC
:100D9000C01B02280FD8686A8007F7D56A484FF44D
:100DA000FA510068B0FBF1F0009000BF0098411EBE
:100DB0000091FAD20EE080E0C0F80080FFF77AFDE3
:100DC000074604E0FFF776FDC01B022875D8686A65
:100DD0008007F7D42078400760D5E8690027C00075
:100DE00008D4E86940F08050E861E869012700F024
:100DF0008050009055480168C90513D401688346A6
:100E000041F480710160FFF755FD824606E000BFA6
:100E1000FFF750FDA0EB0A0064284ED8DBF8000075
:100E2000C005F5D5E06801280AD008B1052813D01F
:100E3000286A20F001002862286A20F0040002E0FD
:100E4000286A40F001002862E06841F2883B98B1CE
:100E5000FFF730FD82460BE0286A40F0040028626C
:100E6000EEE700BFFFF726FDA0EB0A0159455AD86F
:100E7000286A8007F6D50CE0FFF71CFD824605E0E6
:100E8000FFF718FDA0EB0A0159454CD8286A8007E6
:100E9000F6D41FB1E86920F08050E861E06988B3BA
:100EA0006968C1F38101022945D00228C6F8608033
:100EB00004D0FFF7FFFC044638E034E0FFF7FAFC0B
:100EC000074604E0FFF7F6FCC01B02282BD8286871
:100ED0008001F7D4206AB0F5803F05D16868A16829
:100EE00020F4003008436860D4E9080108436968C9
:100EF00021F4741108436860C6F86090FFF7DAFCCB
:100F0000044606E015E000BFFFF7D4FC001B0228F2
:100F100009D828688001F7D50BE000BFFFF7CAFCAD
:100F2000001B022802D90320BDE8F88F2868800141
:100F3000F4D40020F8E70120F6E70000001002409A
:100F400000004242800442422C0000200070004019
:100F50004FF0E0210428086903D020F00400086164
:100F6000704740F00400FAE7704710B5401EB0F13A
:100F7000807F01D3012010BD4FF0E02460610F217C
:100F8000601700F03DFD0020A061072020610020D7
:100F900010BD10B5FFF7E8FF10BD7047704730B5C2
:100FA00090F83C20012A20D0012280F83C20022326
:100FB00080F83D3003685C6824F070045C6003686E
:100FC0005C680D682C435C6003689C6824F08004B6
:100FD0009C6003689C6849680C439C6080F83D20D5
:100FE000002180F83C10084630BD022030BD10B50D
:100FF000040003D094F83D0010B107E0012010BDBB
:10100000002084F83C00204600F00CF8022084F810
:101010003D00211D206800F08FFD012084F83D0077
:10102000002010BD00B50168194885B0B1F1804FAE
:1010300014D0184A91420FD1C16941F00201C16137
:10104000C069002200F00200049003211D20FFF778
:10105000C5FC1D20FFF7B6FC05B000BDC16941F01D
:101060000101C161C069694600F0010004900220DD
:10107000009000200190012002900748FFF732FB0A
:10108000002202211C20FFF7A9FC1C20E2E700003F
:101090000010024000040040000801400168CA68D6
:1010A00042F00102CA600068016841F0010101607C
:1010B0000020704770B5044690F83C00012817D016
:1010C000012584F83C50022084F83D0020688268A5
:1010D00022F0770222F47F4282600868502837D0DD
:1010E0000DDC202859D005DC88B3102841D151E00F
:1010F000022070BD302853D040283AD13FE060280C
:101100002ED070280BD0B0F5805F03D0B0F5005F13
:101110002FD110E02068816821F0070115E0CB682D
:10112000D1E90121206800F048FD2168886840F07D
:10113000770088601DE0CB68D1E90121206800F0CC
:101140003CFD2068816841F48041816011E01EE02F
:10115000CA684968206800F042FD5021206806E016
:10116000CA684968206800F077FD6021206800F0B7
:101170002EFD84F83D50002084F83C0070BDCA6804
:101180004968206800F02BFD40212068EFE700212E
:101190002068ECE710212068E9E720212068E6E7D5
:1011A00030212068E3E700000068B0F1804F06D1ED
:1011B00003480068816B034A516000214162704717
:1011C00048000020000000202DE9F041044690F87E
:1011D0003C000D4601283BD0012684F83C600220EB
:1011E00084F83D009AB3042A44D02068082A53D0DA
:1011F000D5E90027E968036A23F480530362D0F835
:101200001CC0036A2CF4407C4CEA07274FF6FF7C95
:1012100027F470470CEA01313943770323F4005374
:1012200007EA02321A43C16102622068C16921F4EF
:101230004061C1612068C169AA6841EA0221C161B7
:1012400084F83D60002084F83C00BDE8F08101E0B6
:101250000220FAE7D5E90012EB68206800F0D0FC24
:101260002068816921F00C01816120688169AA6888
:1012700011430FE0D5E90012EB68206800F0FEFC96
:101280002068816921F44061816120688169AA68D0
:1012900041EA02218161D3E7D5E9002C2F7B016A65
:1012A00021F480710162C169036A21F0030141EAFE
:1012B0000C0121F0F00C39074FF420674CEA116162
:1012C00023F4206307EA02221A43C1610262206804
:1012D000C16921F00C01C1612068C169AA6811438C
:1012E000ADE710B5040003D094F83D0010B107E05D
:1012F000012010BD002084F83C00204600F00CF8CE
:10130000022084F83D00211D206800F015FC01201A
:1013100084F83D00002010BD704710B502680446F7
:1013200031B1042908D0082915D00C2908D116E0BC
:10133000D06840F0020002E0D06840F00400D060C5
:101340000122206800F02EFC2068016841F00101B4
:101350000160002010BDD06840F00800EFE7D068C1
:1013600040F01000EBE770B50446006801694FF0EB
:101370000005C943890715D4C168C943890711D439
:10138000E91E0161012020772068806980072046DE
:1013900002D0FFF709FF04E000F098F8204600F0C3
:1013A00096F8257720680169C943490717D4C168B1
:1013B000C943490713D46FF004010161022020776B
:1013C0002068806910F4407F204602D0FFF7ECFED1
:1013D00004E000F07BF8204600F079F825772068DB
:1013E0000169C943090716D4C168C943090712D462
:1013F0006FF008010161042020772068C069800730
:10140000204602D0FFF7D0FE04E000F05FF820464F
:1014100000F05DF8257720680169C943C90617D433
:10142000C168C943C90613D46FF0100101610820D7
:1014300020772068C06910F4407F204602D0FFF773
:10144000B3FE04E000F042F8204600F040F82577B3
:1014500020680169C943C90708D1C168C943C907E0
:1014600004D1891E0161204600F032F8206801692C
:10147000C943090609D4C168C943090605D46FF0F8
:10148000800101612046FFF788FD20680169C9439A
:10149000490609D4C168C943490605D46FF0400123
:1014A0000161204600F015F820680169C9438906EA
:1014B0000BD4C168C943890607D46FF020010161CC
:1014C0002046BDE87040FFF769BD70BD70477047AA
:1014D000704770477047000070B502680446106896
:1014E000D168536910F00F0F50D003F0010501F4DB
:1014F000907635435DD0C20705D0CA0503D5E26BAF
:1015000042F00102E263420705D5DA0703D0E26B3D
:1015100042F00202E263820705D5DA0703D0E26BEC
:1015200042F00402E263020705D5DA0703D0E26B5A
:1015300042F00802E263E26B002A33D0800604D551
:10154000880602D5204600F0CAFB20684069E16B9E
:10155000C0F38010090700D428B3204600F0B1FB87
:101560002068416949061AD5416921F0400141616D
:10157000606BA0B11B494163606BFFF755F8002811
:1015800010D0606B416BBDE870400847830610D5F2
:101590008B060ED52046BDE8704000F0A0BB20466B
:1015A000FFF798FF70BD2046FFF794FF0020E0632F
:1015B00070BD030606D50B0604D52046BDE8704075
:1015C00000F090BC4006F3D54806F1D5D16820461E
:1015D00021F04001D160202184F8391000F0DDF8BD
:1015E00070BD0000B31C000870B5040004D094F86E
:1015F0003900002510B106E0012070BD84F8385094
:10160000204600F023F8242084F839002068C168BF
:1016100021F40051C160204600F0ACFB2068016954
:1016200021F4904101612068416921F02A01416162
:101630002068C16841F40051C160E563202084F84E
:10164000390084F83A00002070BD000070B5274EC4
:1016500003680024264902200322264D86B0B342A7
:101660001ED18B6943F480438B618969039201F435
:10167000804104910102CDE9001069462846FFF738
:1016800031F82815CDE90004694628460294FFF791
:1016900029F8002201212520FFF7A0F9252020E0CC
:1016A000154EB3421FD1CB6943F40033CB61C969F6
:1016B000039201F4003104910421CDE90010694640
:1016C0002846FFF70FF80820CDE9000469462846B0
:1016D0000294FFF707F8002211462620FFF77EF953
:1016E0002620FFF76FF906B070BD000000380140FA
:1016F00000100240000801400044004090F83A30D9
:10170000202B22D1F9B1F2B190F83830012B1CD046
:1017100081628285C2850021C163222280F83A203D
:1017200080F838100168CA6842F48072CA600168A3
:101730004A6942F001024A610068C16841F0200133
:10174000C1600020704701207047022070470000F0
:10175000014900F0FDBC00003000002090F8393055
:10176000202B18D1A9B1A2B190F83830012B12D09A
:1017700001628284C2840021C163212280F8392061
:1017800080F838100068C16841F08001C160002015
:10179000704701207047022070477047FEE7000045
:1017A0002DE9F043204885B0816941F01001816145
:1017B000816901F010010491816941F0200181618A
:1017C000816901F020010491816941F00401816186
:1017D0008069DFF8588000F004004FF40054049052
:1017E000002221464046FFF75FF8DFF8449048F2B8
:1017F0000107002239464846FFF756F8009401AA2F
:1018000001240025022682E8700069464046FEF762
:1018100069FF01AA009782E8700069464846FEF712
:1018200061FF05B0BDE8F0830010024000100140E8
:101830000008014010B524488AB04FF08041016093
:1018400048F69F410024C0E901144FF6FE71C0E93B
:1018500003148461FFF7CBFB18B143211BA000F0F8
:1018600080FB4FF48050049004A91748FFF722FC36
:1018700018B1492115A000F074FB1348FFF731FDA2
:1018800018B14E2111A000F06CFB089408A90E4875
:101890000994FFF784FB18B155210CA000F061FBFF
:1018A000022000900120CDE901040F2003900422C2
:1018B00069460548FFF788FC002803D05E2103A095
:1018C00000F04FFB0AB010BD480000202E2E2F5311
:1018D00072632F74696D2E630000000010B5184804
:1018E00086B01649016023210024C0E9011440F2AA
:1018F000E731C0E903148461FFF779FB18B1702167
:1019000010A000F02EFB4FF48050009069460C4868
:10191000FFF7D0FB18B176210AA000F022FB049457
:1019200004A907480594FFF73AFB002803D07D215E
:1019300004A000F016FB06B010BD0000000400403B
:10194000880000202E2E2F5372632F74696D2E6332
:10195000000000000F4810B50D4901604FF416510A
:1019600041604FF48051816000214FF48062C0E9F2
:1019700003120C22C0E90521C161FFF735FE0028E2
:1019800005D0BDE81040432103A000F0EABA10BD25
:1019900000380140C80000202E2E2F5372632F758F
:1019A000736172742E6300000F4810B50D49016019
:1019B0004FF4165141604FF48051816000214FF483
:1019C0008062C0E903120C22C0E90521C161FFF762
:1019D0000BFE002805D0BDE81040562103A000F002
:1019E000C0BA10BD00440040080100202E2E2F5325
:1019F00072632F75736172742E630000FEE7704787
:101A00000907090E002806DA00F00F0000F1E020B7
:101A100080F8141D704700F1E02080F80014704732
:101A20007047704710B5FEF74BFFBDE81040FFF759
:101A3000B0BA30B58FB001210804CDE90010002400
:101A4000029402250491CDE907504FF4E01009906B
:101A50006846FFF7FBF800B1FEE70F20CDE90A0565
:101A60004FF4A060CDE90C4002210AA80E94FEF7C5
:101A7000E7FF00B1FEE7FFF78DF84FF47A71B0FB96
:101A8000F1F0FFF772FA0420FFF762FA0022114624
:101A9000501EFEF7A3FF0FB030BD00000D480168D7
:101AA00041F00101016041680B4A11404160016849
:101AB0000A4A11400160016821F4802101604168F7
:101AC00021F4FE0141604FF41F0181600449C0030D
:101AD00008607047001002400000FFF8FFFFF6FEAC
:101AE00008ED00E010B50848FFF73DFC0648006827
:101AF000C168C943C90706D1891E0161BDE810400C
:101B00000148FFF751BB10BD4800002010B5084840
:101B1000FFF729FC07480168491C01604168491C1E
:101B20004160C168491CC1608168491C816010BD69
:101B30008800002008000020F0B50268164B174C02
:101B4000174D4FF08047984205D0B84203D0A042CD
:101B500001D0A84203D122F070064A68324398426D
:101B600005D0B84203D0A04201D0A84203D122F44C
:101B70004074CA68224322F080044A69224302600A
:101B80008A68C2620A688262984201D10969016367
:101B900001214161F0BD0000002C01400004004023
:101BA0000008004010B50123046A8B409C43046286
:101BB000036A8A401343036210BD10B5846842EA89
:101BC000032224F47F440A432243826010BD8268CA
:101BD00022F070020A4342F007018160704710B59D
:101BE000036A046A24F001040462846924F0F004A6
:101BF00044EA021423F00A020A438461026210BD1F
:101C000070B5046A24F0010404628469056A0F4E09
:101C1000B04208D0B0F1804F05D00D4EB04202D096
:101C20000C4EB04203D124F00304144301E044F00D
:101C300001041A0724F0F00444EA126225F00A03B2
:101C400001F00A0119438261016270BD002C01405C
:101C5000000400400008004010B5036A23F01003A0
:101C600003628369046A23F4704343EA023224F076
:101C7000A00343EA01118261016210BD30B5046A1C
:101C800024F0100404628469056A24F4407444EA70
:101C9000022222F470444FF6FF7202EA033222431A
:101CA000A02425F0A00304EA011119438261016216
:101CB00030BD10B5406A0021C185C184FFF70AFC20
:101CC00010BD0168CA6822F49072CA6001684A694E
:101CD00022F001024A61202180F83A10704710B5C5
:101CE00090F83A10222901D0022010BD8168B1F588
:101CF000805F11D00169002901681FD0496801F097
:101D00007F03816A4A1C82620B70C18D491E0904DF
:101D1000090CC18518D02BE00269816A002A02688B
:101D2000526805D0D2B20A80816A491C8162ECE710
:101D3000C2F308020A80816A891CF7E74A68816A4F
:101D40004B1C83620A70E0E70168CA6822F0200237
:101D5000CA600168CA6822F48072CA6001684A6970
:101D600022F001024A61202180F83A10FFF7F0FCCE
:101D7000002010BD2DE9F041044600680169E268C9
:101D800021F44051114301612169A0680843616950
:101D900008432168CA6841F20C639A430243CA604F
:101DA00020684169A26921F44071114341614C49A5
:101DB00020686425322688423CD1FEF701FF00EB03
:101DC000C00101EB001061688900B0FBF1F7FEF77C
:101DD000F7FE00EBC00101EB00106168B04689001E
:101DE000B0FBF1F0B0FBF5F06FF01801484307EBE2
:101DF000800106EB0110B0FBF5F000F0F006FEF7F5
:101E0000DFFE00EBC00101EB001061688900B0FB50
:101E1000F1F0B0FBF5F006EB0016FEF7D1FE00EB9B
:101E2000C00101EB001061688900B0FBF1F7FEF71B
:101E3000C7FE3BE0FEF7B4FE00EBC00101EB001073
:101E400061688900B0FBF1F7FEF7AAFE00EBC00164
:101E500001EB00106168B0468900B0FBF1F0B0FB07
:101E6000F5F06FF01801484307EB800106EB011015
:101E7000B0FBF5F000F0F006FEF792FE00EBC001BB
:101E800001EB001061688900B0FBF1F0B0FBF5F0E8
:101E900006EB0016FEF784FE00EBC00101EB00101C
:101EA00061688900B0FBF1F7FEF77AFE00EBC00134
:101EB00001EB001061688900B0FBF1F0B0FBF5F0B8
:101EC0006FF01801484307EB800108EB0110B0FBED
:101ED000F5F0216800F00F0030448860BDE8F08123
:101EE0000038014090F83910212901D002207047B4
:101EF0008168B1F5805F016A0BD04A1C02620268FA
:101F000009785160C18C491E0904090CC1840ED0A6
:101F100017E009880268C1F30801516001690029CE
:101F2000016A02D0491C0162ECE7891CFBE70168E9
:101F3000CA6822F08002CA600068C16841F04001AE
:101F4000C1600020704700000148FFF7C5BA0000DB
:101F5000C80000200148FFF7BFBA000008010020B8
:101F6000FEE7FEE702E008C8121F08C1002AFAD106
:101F700070477047002001E001C1121F002AFBD109
:101F8000704701784278891A8278891AC278891A4A
:101F90000279891A4279891A8279891AC279891A49
:101FA000027A891A427A891A827A891AC27A891A35
:101FB000027B891A427B891A827B891AC27B891A21
:101FC000027C891A427C891A827C891AC27C891A0D
:101FD000027D891A427D891A827DC07D891A081A7C
:101FE000C0B27047FEF774FCFFF723FDFFF7D8FB84
:101FF000FFF720FCFFF772FCFFF7D6FCFFF7AAFC07
:102000001B48FFF74BF804211A48FFF786F91A4AD4
:102010001A491B4800F06CF8164E1A4CDFF868801D
:102020004DF6A86700253168486A2060A0F6B832EE
:10203000BA4201D26560F6E74EF66022904203D3C1
:1020400040F6AC504862EEE76068FEF7B9F801214F
:10205000FEF7AAF88146D8F80000FEF7B1F8494625
:10206000FEF7F4F8DFD80948C8F800500560DAE751
:1020700088000020480000203000002008010020D7
:10208000C800002000000020080000200C000020F4
:102090002DE9F041144C134E8F68207A727800F0CD
:1020A000F0055AB111493846FEF74CF8FEF7BAF878
:1020B00000F086F8FEF79DF880B20BE0617A00F040
:1020C000010041EA0020FEF77BF83946FEF73AF8B6
:1020D000FEF77BF87060607245EA10252572BDE856
:1020E000F0810000180000205701002000401C452E
:1020F00070B5054614460E463220FEF7E1FA01227D
:10210000D1031048FEF7D0FB0A20FEF7D9FA4FF0B2
:102110007E50A06047F638606060C4E904562846E7
:1021200019220949FFF7EAFA07490F220F396069B6
:10213000FFF7E4FABDE870404FF400510348FEF7A2
:10214000AFBB000000080140570100200010014013
:1021500010B50C4600681649884224D14114154830
:10216000FEF79EFB21461448FFF792FF12480F38F6
:10217000007AD02805D100224FF400410F48FEF725
:1021800093FB19210C48FFF7FCFE0B491922087636
:102190002069FFF7E3FA08490F2260690F39BDE8AB
:1021A0001040FFF7ABBA192203492069F7E7000096
:1021B0000044004000100140570100200008014089
:1021C0002DE9F04D07460E46FEF728F904460D4668
:1021D0003A463346FEF71FF9DFF86CA0DFF86CB023
:1021E0001B4B0746884616F0004F4FF000020AD0FE
:1021F000FEF758F90AD900225B4638464146FEF7F9
:1022000069F91BD212E0FEF74DF908D200225346BD
:1022100020462946FEF7FCF804460D460EE0002253
:102220005B4638464146FEF755F907D8002253462B
:1022300020462946FEF74BF804460D463146204617
:1022400065F31E01BDE8F08D0000F03F0000E03FA7
:102250000000E0BF000000000000000001020304D5
:102260000607080900000000010203048C22000890
:102270000000002030000000641F0008BC2200089D
:102280003000002040050000741F0008000000001E
:10229000000000000000000000000000000000003E
:1022A000000000000000010000000000010000002C
:0C22B000100000000000000000A24A0422
:04000005080000ED02
:00000001FF
